{
  "_format": "hh-sol-artifact-1",
  "contractName": "GlobalMindProtocolV2",
  "sourceName": "contracts/GlobalMindProtocolV2.sol",
  "abi": [
    {
      "inputs": [
        {
          "internalType": "address",
          "name": "_gmndToken",
          "type": "address"
        },
        {
          "internalType": "address",
          "name": "_treasury",
          "type": "address"
        }
      ],
      "stateMutability": "nonpayable",
      "type": "constructor"
    },
    {
      "anonymous": false,
      "inputs": [
        {
          "indexed": true,
          "internalType": "uint256",
          "name": "batchId",
          "type": "uint256"
        },
        {
          "indexed": true,
          "internalType": "uint256",
          "name": "taskIndex",
          "type": "uint256"
        },
        {
          "indexed": true,
          "internalType": "address",
          "name": "node",
          "type": "address"
        },
        {
          "indexed": false,
          "internalType": "string",
          "name": "answer",
          "type": "string"
        }
      ],
      "name": "AnswerSubmitted",
      "type": "event"
    },
    {
      "anonymous": false,
      "inputs": [
        {
          "indexed": true,
          "internalType": "uint256",
          "name": "batchId",
          "type": "uint256"
        }
      ],
      "name": "BatchCancelled",
      "type": "event"
    },
    {
      "anonymous": false,
      "inputs": [
        {
          "indexed": true,
          "internalType": "uint256",
          "name": "batchId",
          "type": "uint256"
        },
        {
          "indexed": true,
          "internalType": "address",
          "name": "creator",
          "type": "address"
        },
        {
          "indexed": false,
          "internalType": "uint256",
          "name": "reward",
          "type": "uint256"
        },
        {
          "indexed": false,
          "internalType": "uint256",
          "name": "taskCount",
          "type": "uint256"
        },
        {
          "indexed": false,
          "internalType": "uint256",
          "name": "deadline",
          "type": "uint256"
        }
      ],
      "name": "BatchCreated",
      "type": "event"
    },
    {
      "anonymous": false,
      "inputs": [
        {
          "indexed": true,
          "internalType": "uint256",
          "name": "batchId",
          "type": "uint256"
        },
        {
          "indexed": false,
          "internalType": "uint256",
          "name": "rewardPerNode",
          "type": "uint256"
        },
        {
          "indexed": false,
          "internalType": "uint256",
          "name": "burned",
          "type": "uint256"
        },
        {
          "indexed": false,
          "internalType": "uint256",
          "name": "toTreasury",
          "type": "uint256"
        },
        {
          "indexed": false,
          "internalType": "uint256",
          "name": "validatorCount",
          "type": "uint256"
        }
      ],
      "name": "BatchFinalized",
      "type": "event"
    },
    {
      "anonymous": false,
      "inputs": [
        {
          "indexed": false,
          "internalType": "uint256",
          "name": "amount",
          "type": "uint256"
        },
        {
          "indexed": false,
          "internalType": "uint256",
          "name": "totalBurned",
          "type": "uint256"
        }
      ],
      "name": "TokensBurned",
      "type": "event"
    },
    {
      "inputs": [],
      "name": "BURN_SHARE",
      "outputs": [
        {
          "internalType": "uint256",
          "name": "",
          "type": "uint256"
        }
      ],
      "stateMutability": "view",
      "type": "function"
    },
    {
      "inputs": [],
      "name": "MIN_VALIDATORS",
      "outputs": [
        {
          "internalType": "uint256",
          "name": "",
          "type": "uint256"
        }
      ],
      "stateMutability": "view",
      "type": "function"
    },
    {
      "inputs": [],
      "name": "REWARD_SHARE",
      "outputs": [
        {
          "internalType": "uint256",
          "name": "",
          "type": "uint256"
        }
      ],
      "stateMutability": "view",
      "type": "function"
    },
    {
      "inputs": [],
      "name": "TREASURY_SHARE",
      "outputs": [
        {
          "internalType": "uint256",
          "name": "",
          "type": "uint256"
        }
      ],
      "stateMutability": "view",
      "type": "function"
    },
    {
      "inputs": [
        {
          "internalType": "uint256",
          "name": "",
          "type": "uint256"
        },
        {
          "internalType": "uint256",
          "name": "",
          "type": "uint256"
        },
        {
          "internalType": "uint256",
          "name": "",
          "type": "uint256"
        }
      ],
      "name": "answers",
      "outputs": [
        {
          "internalType": "address",
          "name": "node",
          "type": "address"
        },
        {
          "internalType": "string",
          "name": "answer",
          "type": "string"
        },
        {
          "internalType": "uint256",
          "name": "submittedAt",
          "type": "uint256"
        }
      ],
      "stateMutability": "view",
      "type": "function"
    },
    {
      "inputs": [],
      "name": "batchCount",
      "outputs": [
        {
          "internalType": "uint256",
          "name": "",
          "type": "uint256"
        }
      ],
      "stateMutability": "view",
      "type": "function"
    },
    {
      "inputs": [
        {
          "internalType": "uint256",
          "name": "",
          "type": "uint256"
        }
      ],
      "name": "batches",
      "outputs": [
        {
          "internalType": "address",
          "name": "creator",
          "type": "address"
        },
        {
          "internalType": "uint256",
          "name": "reward",
          "type": "uint256"
        },
        {
          "internalType": "uint256",
          "name": "createdAt",
          "type": "uint256"
        },
        {
          "internalType": "uint256",
          "name": "deadline",
          "type": "uint256"
        },
        {
          "internalType": "enum GlobalMindProtocolV2.BatchStatus",
          "name": "status",
          "type": "uint8"
        },
        {
          "internalType": "uint256",
          "name": "taskCount",
          "type": "uint256"
        }
      ],
      "stateMutability": "view",
      "type": "function"
    },
    {
      "inputs": [
        {
          "internalType": "uint256",
          "name": "batchId",
          "type": "uint256"
        }
      ],
      "name": "cancelBatch",
      "outputs": [],
      "stateMutability": "nonpayable",
      "type": "function"
    },
    {
      "inputs": [
        {
          "internalType": "string[]",
          "name": "taskIds",
          "type": "string[]"
        },
        {
          "internalType": "string[]",
          "name": "contents",
          "type": "string[]"
        },
        {
          "internalType": "enum GlobalMindProtocolV2.TaskType[]",
          "name": "taskTypes",
          "type": "uint8[]"
        },
        {
          "internalType": "uint256",
          "name": "deadlineIn",
          "type": "uint256"
        },
        {
          "internalType": "uint256",
          "name": "rewardAmount",
          "type": "uint256"
        }
      ],
      "name": "createBatch",
      "outputs": [
        {
          "internalType": "uint256",
          "name": "batchId",
          "type": "uint256"
        }
      ],
      "stateMutability": "nonpayable",
      "type": "function"
    },
    {
      "inputs": [
        {
          "internalType": "uint256",
          "name": "batchId",
          "type": "uint256"
        }
      ],
      "name": "finalizeBatch",
      "outputs": [],
      "stateMutability": "nonpayable",
      "type": "function"
    },
    {
      "inputs": [
        {
          "internalType": "uint256",
          "name": "batchId",
          "type": "uint256"
        }
      ],
      "name": "getBatchInfo",
      "outputs": [
        {
          "internalType": "address",
          "name": "creator",
          "type": "address"
        },
        {
          "internalType": "uint256",
          "name": "reward",
          "type": "uint256"
        },
        {
          "internalType": "uint256",
          "name": "taskCount",
          "type": "uint256"
        },
        {
          "internalType": "uint256",
          "name": "deadline",
          "type": "uint256"
        },
        {
          "internalType": "enum GlobalMindProtocolV2.BatchStatus",
          "name": "status",
          "type": "uint8"
        }
      ],
      "stateMutability": "view",
      "type": "function"
    },
    {
      "inputs": [],
      "name": "getNetworkStats",
      "outputs": [
        {
          "internalType": "uint256",
          "name": "_totalBatches",
          "type": "uint256"
        },
        {
          "internalType": "uint256",
          "name": "_totalBurned",
          "type": "uint256"
        },
        {
          "internalType": "uint256",
          "name": "_totalRewarded",
          "type": "uint256"
        }
      ],
      "stateMutability": "view",
      "type": "function"
    },
    {
      "inputs": [
        {
          "internalType": "address",
          "name": "node",
          "type": "address"
        }
      ],
      "name": "getNodeProfile",
      "outputs": [
        {
          "internalType": "uint256",
          "name": "score",
          "type": "uint256"
        },
        {
          "internalType": "uint256",
          "name": "totalTasks",
          "type": "uint256"
        },
        {
          "internalType": "uint256",
          "name": "earned",
          "type": "uint256"
        }
      ],
      "stateMutability": "view",
      "type": "function"
    },
    {
      "inputs": [
        {
          "internalType": "uint256",
          "name": "batchId",
          "type": "uint256"
        },
        {
          "internalType": "uint256",
          "name": "taskIndex",
          "type": "uint256"
        }
      ],
      "name": "getTask",
      "outputs": [
        {
          "internalType": "string",
          "name": "taskId",
          "type": "string"
        },
        {
          "internalType": "string",
          "name": "content",
          "type": "string"
        },
        {
          "internalType": "enum GlobalMindProtocolV2.TaskType",
          "name": "taskType",
          "type": "uint8"
        }
      ],
      "stateMutability": "view",
      "type": "function"
    },
    {
      "inputs": [],
      "name": "gmndToken",
      "outputs": [
        {
          "internalType": "contract IERC20",
          "name": "",
          "type": "address"
        }
      ],
      "stateMutability": "view",
      "type": "function"
    },
    {
      "inputs": [
        {
          "internalType": "uint256",
          "name": "",
          "type": "uint256"
        },
        {
          "internalType": "uint256",
          "name": "",
          "type": "uint256"
        },
        {
          "internalType": "address",
          "name": "",
          "type": "address"
        }
      ],
      "name": "hasAnswered",
      "outputs": [
        {
          "internalType": "bool",
          "name": "",
          "type": "bool"
        }
      ],
      "stateMutability": "view",
      "type": "function"
    },
    {
      "inputs": [
        {
          "internalType": "address",
          "name": "",
          "type": "address"
        }
      ],
      "name": "nodeEarned",
      "outputs": [
        {
          "internalType": "uint256",
          "name": "",
          "type": "uint256"
        }
      ],
      "stateMutability": "view",
      "type": "function"
    },
    {
      "inputs": [
        {
          "internalType": "address",
          "name": "",
          "type": "address"
        }
      ],
      "name": "nodeScore",
      "outputs": [
        {
          "internalType": "uint256",
          "name": "",
          "type": "uint256"
        }
      ],
      "stateMutability": "view",
      "type": "function"
    },
    {
      "inputs": [
        {
          "internalType": "address",
          "name": "",
          "type": "address"
        }
      ],
      "name": "nodeTaskCount",
      "outputs": [
        {
          "internalType": "uint256",
          "name": "",
          "type": "uint256"
        }
      ],
      "stateMutability": "view",
      "type": "function"
    },
    {
      "inputs": [],
      "name": "owner",
      "outputs": [
        {
          "internalType": "address",
          "name": "",
          "type": "address"
        }
      ],
      "stateMutability": "view",
      "type": "function"
    },
    {
      "inputs": [
        {
          "internalType": "address",
          "name": "_treasury",
          "type": "address"
        }
      ],
      "name": "setTreasury",
      "outputs": [],
      "stateMutability": "nonpayable",
      "type": "function"
    },
    {
      "inputs": [
        {
          "internalType": "uint256",
          "name": "batchId",
          "type": "uint256"
        },
        {
          "internalType": "uint256",
          "name": "taskIndex",
          "type": "uint256"
        },
        {
          "internalType": "string",
          "name": "answer",
          "type": "string"
        }
      ],
      "name": "submitAnswer",
      "outputs": [],
      "stateMutability": "nonpayable",
      "type": "function"
    },
    {
      "inputs": [],
      "name": "totalBurned",
      "outputs": [
        {
          "internalType": "uint256",
          "name": "",
          "type": "uint256"
        }
      ],
      "stateMutability": "view",
      "type": "function"
    },
    {
      "inputs": [],
      "name": "totalRewarded",
      "outputs": [
        {
          "internalType": "uint256",
          "name": "",
          "type": "uint256"
        }
      ],
      "stateMutability": "view",
      "type": "function"
    },
    {
      "inputs": [
        {
          "internalType": "address",
          "name": "newOwner",
          "type": "address"
        }
      ],
      "name": "transferOwnership",
      "outputs": [],
      "stateMutability": "nonpayable",
      "type": "function"
    },
    {
      "inputs": [],
      "name": "treasury",
      "outputs": [
        {
          "internalType": "address",
          "name": "",
          "type": "address"
        }
      ],
      "stateMutability": "view",
      "type": "function"
    }
  ],
  "bytecode": "0x60806040523480156200001157600080fd5b506040516200295c3803806200295c833981016040819052620000349162000142565b6001600160a01b038216620000905760405162461bcd60e51b815260206004820152601a60248201527f476c6f62616c4d696e643a20746f6b656e20696e76616c69646f00000000000060448201526064015b60405180910390fd5b6001600160a01b038116620000e85760405162461bcd60e51b815260206004820152601d60248201527f476c6f62616c4d696e643a20747265617375727920696e76616c69646f000000604482015260640162000087565b600080546001600160a01b03199081163317909155600280546001600160a01b03948516908316179055600180549290931691161790556200017a565b80516001600160a01b03811681146200013d57600080fd5b919050565b600080604083850312156200015657600080fd5b620001618362000125565b9150620001716020840162000125565b90509250929050565b6127d2806200018a6000396000f3fe608060405234801561001057600080fd5b506004361061018e5760003560e01c8063631cfc26116100de578063c598bd3011610097578063df6a6f8c11610071578063df6a6f8c14610423578063e33491a714610443578063f0f4426014610456578063f2fde38b1461046957600080fd5b8063c598bd30146103ba578063c8dfa5fe146103da578063d89135cd1461041a57600080fd5b8063631cfc26146102da57806367be6c4c1461031e5780638da5cb5b1461033157806393b998fb14610344578063aed29d071461034c578063b32c4d8d1461035557600080fd5b806349222b501161014b57806352dd4eb11161012557806352dd4eb114610295578063565e5db3146102b75780635ed1f963146102bf57806361d027b3146102c757600080fd5b806349222b50146102235780634a662f48146102455780634d251c571461026a57600080fd5b806306f13056146101935780630a24cf5f146101af57806314a89095146101c45780631a0058f5146101e45780631bc7980c14610208578063326961741461021b575b600080fd5b61019c60035481565b6040519081526020015b60405180910390f35b6101c26101bd3660046120b8565b61047c565b005b61019c6101d23660046120ed565b600b6020526000908152604090205481565b6101f76101f23660046120b8565b61065e565b6040516101a6959493929190612139565b6101c2610216366004612175565b6106cb565b61019c600a81565b6102366102313660046121f5565b610a4d565b6040516101a693929190612267565b6003546004546005545b604080519384526020840192909252908201526060016101a6565b60025461027d906001600160a01b031681565b6040516001600160a01b0390911681526020016101a6565b6102a86102a336600461229b565b610b32565b6040516101a6939291906122bd565b61019c604681565b61019c600181565b60015461027d906001600160a01b031681565b61030e6102e8366004612303565b600860209081526000938452604080852082529284528284209052825290205460ff1681565b60405190151581526020016101a6565b61019c61032c366004612384565b610ccd565b60005461027d906001600160a01b031681565b61019c601481565b61019c60055481565b6103a86103633660046120b8565b60066020819052600091825260409091208054600182015460028301546003840154600485015494909501546001600160a01b03909316949193909260ff9091169086565b6040516101a69695949392919061242d565b61019c6103c83660046120ed565b600a6020526000908152604090205481565b61024f6103e83660046120ed565b6001600160a01b0316600090815260096020908152604080832054600a835281842054600b9093529220549192909190565b61019c60045481565b61019c6104313660046120ed565b60096020526000908152604090205481565b6101c26104513660046120b8565b611177565b6101c26104643660046120ed565b61167d565b6101c26104773660046120ed565b61174f565b8060035481106104a75760405162461bcd60e51b815260040161049e90612470565b60405180910390fd5b600082815260066020526040812090600482015460ff1660028111156104cf576104cf61210f565b146104ec5760405162461bcd60e51b815260040161049e906124a7565b80546001600160a01b031633146105455760405162461bcd60e51b815260206004820152601c60248201527f476c6f62616c4d696e643a206170656e6173206f2063726961646f7200000000604482015260640161049e565b610553838260060154611821565b156105a05760405162461bcd60e51b815260206004820152601b60248201527f476c6f62616c4d696e643a206a6120686120726573706f737461730000000000604482015260640161049e565b6004818101805460ff19166002908117909155548254600184015460405163a9059cbb60e01b81526001600160a01b03928316948101949094526024840152169063a9059cbb906044016020604051808303816000875af1158015610609573d6000803e3d6000fd5b505050506040513d601f19601f8201168201806040525081019061062d91906124de565b5060405183907f1ced0d1c8e8b8f4a42eabfd2c95761ded75ea1e0925f77edfb139bd09b8c3f5790600090a2505050565b60008060008060008560035481106106885760405162461bcd60e51b815260040161049e90612470565b50505060009384525050600660208190526040909220805460018201549382015460038301546004909301546001600160a01b039092169590935060ff90911690565b8360035481106106ed5760405162461bcd60e51b815260040161049e90612470565b600085815260066020526040812090600482015460ff1660028111156107155761071561210f565b146107325760405162461bcd60e51b815260040161049e906124a7565b80600301544211156107865760405162461bcd60e51b815260206004820152601b60248201527f476c6f62616c4d696e643a207072617a6f20656e6365727261646f0000000000604482015260640161049e565b806006015485106107d95760405162461bcd60e51b815260206004820152601d60248201527f476c6f62616c4d696e643a20746172656661206e616f20657869737465000000604482015260640161049e565b6000868152600860209081526040808320888452825280832033845290915290205460ff161561084b5760405162461bcd60e51b815260206004820152601860248201527f476c6f62616c4d696e643a206a6120726573706f6e6465750000000000000000604482015260640161049e565b80546001600160a01b031633036108b35760405162461bcd60e51b815260206004820152602660248201527f476c6f62616c4d696e643a2063726961646f72206e616f20706f6465207265736044820152653837b73232b960d11b606482015260840161049e565b826109005760405162461bcd60e51b815260206004820152601a60248201527f476c6f62616c4d696e643a20726573706f7374612076617a6961000000000000604482015260640161049e565b600086815260076020908152604080832088845282529182902082516060810184523381528351601f8801849004840281018401909452868452909290918281019190889088908190840183828082843760009201829052509385525050426020938401525083546001808201865594825290829020835160039092020180546001600160a01b0319166001600160a01b039092169190911781559082015191929091908201906109b190826125a1565b5060409182015160029091015560008781526008602090815282822088835281528282203383528152828220805460ff19166001179055600a90529081208054916109fb83612677565b9190505550336001600160a01b031685877f1b72a809869907cac4c4e55b8bf6920ff492d2ff53307bb77ba492366b61387c8787604051610a3d929190612690565b60405180910390a4505050505050565b60076020528260005260406000206020528160005260406000208181548110610a7557600080fd5b6000918252602090912060039091020180546001820180546001600160a01b039092169550919350909150610aa990612516565b80601f0160208091040260200160405190810160405280929190818152602001828054610ad590612516565b8015610b225780601f10610af757610100808354040283529160200191610b22565b820191906000526020600020905b815481529060010190602001808311610b0557829003601f168201915b5050505050908060020154905083565b6060806000846003548110610b595760405162461bcd60e51b815260040161049e90612470565b6000868152600660205260408120600501805487908110610b7c57610b7c6126bf565b9060005260206000209060030201905080600001816001018260020160009054906101000a900460ff16828054610bb290612516565b80601f0160208091040260200160405190810160405280929190818152602001828054610bde90612516565b8015610c2b5780601f10610c0057610100808354040283529160200191610c2b565b820191906000526020600020905b815481529060010190602001808311610c0e57829003601f168201915b50505050509250818054610c3e90612516565b80601f0160208091040260200160405190810160405280929190818152602001828054610c6a90612516565b8015610cb75780601f10610c8c57610100808354040283529160200191610cb7565b820191906000526020600020905b815481529060010190602001808311610c9a57829003601f168201915b5050505050915094509450945050509250925092565b600087610d1c5760405162461bcd60e51b815260206004820152601760248201527f476c6f62616c4d696e643a2073656d2074617265666173000000000000000000604482015260640161049e565b878614610d6b5760405162461bcd60e51b815260206004820152601e60248201527f476c6f62616c4d696e643a2061727261797320646976657267656e7465730000604482015260640161049e565b878414610dba5760405162461bcd60e51b815260206004820152601e60248201527f476c6f62616c4d696e643a2061727261797320646976657267656e7465730000604482015260640161049e565b60008211610e145760405162461bcd60e51b815260206004820152602160248201527f476c6f62616c4d696e643a207265636f6d70656e7361206e65636573736172696044820152606160f81b606482015260840161049e565b610e10831015610e665760405162461bcd60e51b815260206004820152601f60248201527f476c6f62616c4d696e643a207072617a6f206d696e696d6f203120686f726100604482015260640161049e565b6002546040516323b872dd60e01b8152336004820152306024820152604481018490526001600160a01b03909116906323b872dd906064016020604051808303816000875af1158015610ebd573d6000803e3d6000fd5b505050506040513d601f19601f82011682018060405250810190610ee191906124de565b610f395760405162461bcd60e51b8152602060048201526024808201527f476c6f62616c4d696e643a2066616c686120616f207472616e7366657269722060448201526311d3539160e21b606482015260840161049e565b60038054906000610f4983612677565b90915550600081815260066020526040902080546001600160a01b0319163317815560018101849055426002820181905591925090610f899085906126d5565b600382015560048101805460ff191690556006810189905560005b89811015611120578160050160405180606001604052808d8d85818110610fcd57610fcd6126bf565b9050602002810190610fdf91906126e8565b8080601f0160208091040260200160405190810160405280939291908181526020018383808284376000920191909152505050908252506020018b8b8581811061102b5761102b6126bf565b905060200281019061103d91906126e8565b8080601f016020809104026020016040519081016040528093929190818152602001838380828437600092019190915250505090825250602001898985818110611089576110896126bf565b905060200201602081019061109e919061272f565b60038111156110af576110af61210f565b905281546001810183556000928352602090922081519192600302019081906110d890826125a1565b50602082015160018201906110ed90826125a1565b50604082015160028201805460ff191660018360038111156111115761111161210f565b02179055505050600101610fa4565b50600381015460408051858152602081018c90528082019290925251339184917f9a232dcb3d9dbf48e9abd6eacbc9cdd189a28826c49f9f91dbb116d0befd2b5c9181900360600190a35098975050505050505050565b8060035481106111995760405162461bcd60e51b815260040161049e90612470565b600082815260066020526040812090600482015460ff1660028111156111c1576111c161210f565b146111de5760405162461bcd60e51b815260040161049e906124a7565b80600301544211806111f957506111f9838260060154611862565b61125f5760405162461bcd60e51b815260206004820152603160248201527f476c6f62616c4d696e643a20616775617264616e646f20726573706f73746173604482015270206d696e696d6173206f75207072617a6f60781b606482015260840161049e565b60048101805460ff1916600117905560068101546000906112819085906118ae565b8051909150806112d35760405162461bcd60e51b815260206004820152601b60248201527f476c6f62616c4d696e643a206e656e68756d2076656e6365646f720000000000604482015260640161049e565b6001830154600060646112e7601484612750565b6112f19190612767565b905060006064611302600a85612750565b61130c9190612767565b905060008161131b8486612789565b6113259190612789565b905060006113338683612767565b905083156113ee57600254604051630852cd8d60e31b8152600481018690526001600160a01b03909116906342966c6890602401600060405180830381600087803b15801561138157600080fd5b505af1158015611395573d6000803e3d6000fd5b5050505083600460008282546113ab91906126d5565b90915550506004546040805186815260208101929092527f8bc81353cf6671d259d22783e39ed930583c86f3f4cf7e981298e6a872dfb15d910160405180910390a15b821561146f5760025460015460405163a9059cbb60e01b81526001600160a01b0391821660048201526024810186905291169063a9059cbb906044016020604051808303816000875af1158015611449573d6000803e3d6000fd5b505050506040513d601f19601f8201168201806040525081019061146d91906124de565b505b60005b868110156116265760006001600160a01b0316888281518110611497576114976126bf565b60200260200101516001600160a01b0316031561161e57600a600960008a84815181106114c6576114c66126bf565b60200260200101516001600160a01b03166001600160a01b0316815260200190815260200160002060008282546114fd91906126d5565b9250508190555081600b60008a848151811061151b5761151b6126bf565b60200260200101516001600160a01b03166001600160a01b03168152602001908152602001600020600082825461155291906126d5565b92505081905550816005600082825461156b91906126d5565b9091555050811561161e5760025488516001600160a01b039091169063a9059cbb908a908490811061159f5761159f6126bf565b6020026020010151846040518363ffffffff1660e01b81526004016115d99291906001600160a01b03929092168252602082015260400190565b6020604051808303816000875af11580156115f8573d6000803e3d6000fd5b505050506040513d601f19601f8201168201806040525081019061161c91906124de565b505b600101611472565b506040805182815260208101869052908101849052606081018790528a907fa8e81f5051809330bf5d548ab605b0702cfb5353994def75bf7003e9f39ed11e9060800160405180910390a250505050505050505050565b6000546001600160a01b031633146116d75760405162461bcd60e51b815260206004820152601a60248201527f476c6f62616c4d696e643a206170656e6173206f206f776e6572000000000000604482015260640161049e565b6001600160a01b03811661172d5760405162461bcd60e51b815260206004820152601d60248201527f476c6f62616c4d696e643a20747265617375727920696e76616c69646f000000604482015260640161049e565b600180546001600160a01b0319166001600160a01b0392909216919091179055565b6000546001600160a01b031633146117a95760405162461bcd60e51b815260206004820152601a60248201527f476c6f62616c4d696e643a206170656e6173206f206f776e6572000000000000604482015260640161049e565b6001600160a01b0381166117ff5760405162461bcd60e51b815260206004820152601a60248201527f476c6f62616c4d696e643a206f776e657220696e76616c69646f000000000000604482015260640161049e565b600080546001600160a01b0319166001600160a01b0392909216919091179055565b6000805b8281101561185b57600084815260076020908152604080832084845290915290205461185190836126d5565b9150600101611825565b5092915050565b6000805b828110156118a25760008481526007602090815260408083208484529091529020546001111561189a5760009150506118a8565b600101611866565b50600190505b92915050565b606060006118bc8484611c10565b805190915060008190036118e257505060408051600081526020810190915290506118a8565b60008167ffffffffffffffff8111156118fd576118fd612500565b604051908082528060200260200182016040528015611926578160200160208202803683370190505b50905060005b85811015611aec576000878152600760209081526040808320848452909152902080546001111561195d5750611ae4565b600061196882611e43565b905060005b8254811015611ae057611a3c83828154811061198b5761198b6126bf565b906000526020600020906003020160010180546119a790612516565b80601f01602080910402602001604051908101604052809291908181526020018280546119d390612516565b8015611a205780601f106119f557610100808354040283529160200191611a20565b820191906000526020600020905b815481529060010190602001808311611a0357829003601f168201915b5050505050838051602091820120825192909101919091201490565b15611ad85760005b86811015611ad657838281548110611a5e57611a5e6126bf565b600091825260209091206003909102015488516001600160a01b0390911690899083908110611a8f57611a8f6126bf565b60200260200101516001600160a01b031603611ace576001868281518110611ab957611ab96126bf565b91151560209283029190910190910152611ad6565b600101611a44565b505b60010161196d565b5050505b60010161192c565b506000805b83811015611b2e57828181518110611b0b57611b0b6126bf565b602002602001015115611b265781611b2281612677565b9250505b600101611af1565b5060008167ffffffffffffffff811115611b4a57611b4a612500565b604051908082528060200260200182016040528015611b73578160200160208202803683370190505b5090506000805b85811015611c0257848181518110611b9457611b946126bf565b602002602001015115611bfa57868181518110611bb357611bb36126bf565b6020026020010151838380611bc790612677565b945081518110611bd957611bd96126bf565b60200260200101906001600160a01b031690816001600160a01b0316815250505b600101611b7a565b509098975050505050505050565b60606000805b83811015611c4c576000858152600760209081526040808320848452909152902054611c4290836126d5565b9150600101611c16565b5060008167ffffffffffffffff811115611c6857611c68612500565b604051908082528060200260200182016040528015611c91578160200160208202803683370190505b5090506000805b85811015611d995760008781526007602090815260408083208484529091528120905b8154811015611d8f576000828281548110611cd857611cd86126bf565b600091825260208220600390910201546001600160a01b03169150805b86811015611d4057826001600160a01b0316888281518110611d1957611d196126bf565b60200260200101516001600160a01b031603611d385760019150611d40565b600101611cf5565b5080611d8557818787611d5281612677565b985081518110611d6457611d646126bf565b60200260200101906001600160a01b031690816001600160a01b0316815250505b5050600101611cbb565b5050600101611c98565b5060008167ffffffffffffffff811115611db557611db5612500565b604051908082528060200260200182016040528015611dde578160200160208202803683370190505b50905060005b82811015611e3857838181518110611dfe57611dfe6126bf565b6020026020010151828281518110611e1857611e186126bf565b6001600160a01b0390921660209283029190910190910152600101611de4565b509695505050505050565b80546060906000805b828110156120b0576000805b84811015611fec57611fd1878481548110611e7557611e756126bf565b90600052602060002090600302016001018054611e9190612516565b80601f0160208091040260200160405190810160405280929190818152602001828054611ebd90612516565b8015611f0a5780601f10611edf57610100808354040283529160200191611f0a565b820191906000526020600020905b815481529060010190602001808311611eed57829003601f168201915b5050505050888381548110611f2157611f216126bf565b90600052602060002090600302016001018054611f3d90612516565b80601f0160208091040260200160405190810160405280929190818152602001828054611f6990612516565b8015611fb65780601f10611f8b57610100808354040283529160200191611fb6565b820191906000526020600020905b815481529060010190602001808311611f9957829003601f168201915b50505050508051602091820120825192909101919091201490565b15611fe45781611fe081612677565b9250505b600101611e58565b50828111156120a75780925085828154811061200a5761200a6126bf565b9060005260206000209060030201600101805461202690612516565b80601f016020809104026020016040519081016040528092919081815260200182805461205290612516565b801561209f5780601f106120745761010080835404028352916020019161209f565b820191906000526020600020905b81548152906001019060200180831161208257829003601f168201915b505050505094505b50600101611e4c565b505050919050565b6000602082840312156120ca57600080fd5b5035919050565b80356001600160a01b03811681146120e857600080fd5b919050565b6000602082840312156120ff57600080fd5b612108826120d1565b9392505050565b634e487b7160e01b600052602160045260246000fd5b600381106121355761213561210f565b9052565b6001600160a01b038616815260208101859052604081018490526060810183905260a0810161216b6080830184612125565b9695505050505050565b6000806000806060858703121561218b57600080fd5b8435935060208501359250604085013567ffffffffffffffff808211156121b157600080fd5b818701915087601f8301126121c557600080fd5b8135818111156121d457600080fd5b8860208285010111156121e657600080fd5b95989497505060200194505050565b60008060006060848603121561220a57600080fd5b505081359360208301359350604090920135919050565b6000815180845260005b818110156122475760208185018101518683018201520161222b565b506000602082860101526020601f19601f83011685010191505092915050565b6001600160a01b038416815260606020820181905260009061228b90830185612221565b9050826040830152949350505050565b600080604083850312156122ae57600080fd5b50508035926020909101359150565b6060815260006122d06060830186612221565b82810360208401526122e28186612221565b915050600483106122f5576122f561210f565b826040830152949350505050565b60008060006060848603121561231857600080fd5b833592506020840135915061232f604085016120d1565b90509250925092565b60008083601f84011261234a57600080fd5b50813567ffffffffffffffff81111561236257600080fd5b6020830191508360208260051b850101111561237d57600080fd5b9250929050565b60008060008060008060008060a0898b0312156123a057600080fd5b883567ffffffffffffffff808211156123b857600080fd5b6123c48c838d01612338565b909a50985060208b01359150808211156123dd57600080fd5b6123e98c838d01612338565b909850965060408b013591508082111561240257600080fd5b5061240f8b828c01612338565b999c989b509699959896976060870135966080013595509350505050565b6001600160a01b038716815260208101869052604081018590526060810184905260c0810161245f6080830185612125565b8260a0830152979650505050505050565b6020808252601c908201527f476c6f62616c4d696e643a206261746368206e616f2065786973746500000000604082015260600190565b6020808252601c908201527f476c6f62616c4d696e643a206261746368206e616f2061626572746f00000000604082015260600190565b6000602082840312156124f057600080fd5b8151801515811461210857600080fd5b634e487b7160e01b600052604160045260246000fd5b600181811c9082168061252a57607f821691505b60208210810361254a57634e487b7160e01b600052602260045260246000fd5b50919050565b601f82111561259c576000816000526020600020601f850160051c810160208610156125795750805b601f850160051c820191505b8181101561259857828155600101612585565b5050505b505050565b815167ffffffffffffffff8111156125bb576125bb612500565b6125cf816125c98454612516565b84612550565b602080601f83116001811461260457600084156125ec5750858301515b600019600386901b1c1916600185901b178555612598565b600085815260208120601f198616915b8281101561263357888601518255948401946001909101908401612614565b50858210156126515787850151600019600388901b60f8161c191681555b5050505050600190811b01905550565b634e487b7160e01b600052601160045260246000fd5b60006001820161268957612689612661565b5060010190565b60208152816020820152818360408301376000818301604090810191909152601f909201601f19160101919050565b634e487b7160e01b600052603260045260246000fd5b808201808211156118a8576118a8612661565b6000808335601e198436030181126126ff57600080fd5b83018035915067ffffffffffffffff82111561271a57600080fd5b60200191503681900382131561237d57600080fd5b60006020828403121561274157600080fd5b81356004811061210857600080fd5b80820281158282048414176118a8576118a8612661565b60008261278457634e487b7160e01b600052601260045260246000fd5b500490565b818103818111156118a8576118a861266156fea264697066735822122018df09e34043f7069397f45fd4ef289157f9d949854768f94588714a49b2c3ff64736f6c63430008180033",
  "linkReferences": {},
  "deployedLinkReferences": {}
}