{
  "_format": "hh-sol-artifact-1",
  "contractName": "GMNDToken",
  "sourceName": "contracts/GMNDToken.sol",
  "abi": [
    {
      "inputs": [
        {
          "internalType": "address",
          "name": "_teamWallet",
          "type": "address"
        },
        {
          "internalType": "address",
          "name": "_reserveWallet",
          "type": "address"
        },
        {
          "internalType": "address",
          "name": "_ecosystemWallet",
          "type": "address"
        },
        {
          "internalType": "address",
          "name": "_liquidityWallet",
          "type": "address"
        },
        {
          "internalType": "address",
          "name": "_seedWallet",
          "type": "address"
        }
      ],
      "stateMutability": "nonpayable",
      "type": "constructor"
    },
    {
      "anonymous": false,
      "inputs": [
        {
          "indexed": true,
          "internalType": "address",
          "name": "owner",
          "type": "address"
        },
        {
          "indexed": true,
          "internalType": "address",
          "name": "spender",
          "type": "address"
        },
        {
          "indexed": false,
          "internalType": "uint256",
          "name": "value",
          "type": "uint256"
        }
      ],
      "name": "Approval",
      "type": "event"
    },
    {
      "anonymous": false,
      "inputs": [
        {
          "indexed": true,
          "internalType": "address",
          "name": "protocol",
          "type": "address"
        }
      ],
      "name": "ProtocolContractSet",
      "type": "event"
    },
    {
      "anonymous": false,
      "inputs": [
        {
          "indexed": true,
          "internalType": "address",
          "name": "burner",
          "type": "address"
        },
        {
          "indexed": false,
          "internalType": "uint256",
          "name": "amount",
          "type": "uint256"
        }
      ],
      "name": "TokensBurned",
      "type": "event"
    },
    {
      "anonymous": false,
      "inputs": [
        {
          "indexed": true,
          "internalType": "uint256",
          "name": "scheduleId",
          "type": "uint256"
        },
        {
          "indexed": true,
          "internalType": "address",
          "name": "beneficiary",
          "type": "address"
        },
        {
          "indexed": false,
          "internalType": "uint256",
          "name": "amount",
          "type": "uint256"
        }
      ],
      "name": "TokensReleased",
      "type": "event"
    },
    {
      "anonymous": false,
      "inputs": [
        {
          "indexed": true,
          "internalType": "address",
          "name": "from",
          "type": "address"
        },
        {
          "indexed": true,
          "internalType": "address",
          "name": "to",
          "type": "address"
        },
        {
          "indexed": false,
          "internalType": "uint256",
          "name": "value",
          "type": "uint256"
        }
      ],
      "name": "Transfer",
      "type": "event"
    },
    {
      "anonymous": false,
      "inputs": [
        {
          "indexed": true,
          "internalType": "uint256",
          "name": "scheduleId",
          "type": "uint256"
        },
        {
          "indexed": true,
          "internalType": "address",
          "name": "beneficiary",
          "type": "address"
        },
        {
          "indexed": false,
          "internalType": "uint256",
          "name": "amount",
          "type": "uint256"
        }
      ],
      "name": "VestingCreated",
      "type": "event"
    },
    {
      "inputs": [],
      "name": "ECOSYSTEM",
      "outputs": [
        {
          "internalType": "uint256",
          "name": "",
          "type": "uint256"
        }
      ],
      "stateMutability": "view",
      "type": "function"
    },
    {
      "inputs": [],
      "name": "LIQUIDITY",
      "outputs": [
        {
          "internalType": "uint256",
          "name": "",
          "type": "uint256"
        }
      ],
      "stateMutability": "view",
      "type": "function"
    },
    {
      "inputs": [],
      "name": "NETWORK_REWARDS",
      "outputs": [
        {
          "internalType": "uint256",
          "name": "",
          "type": "uint256"
        }
      ],
      "stateMutability": "view",
      "type": "function"
    },
    {
      "inputs": [],
      "name": "RESERVE",
      "outputs": [
        {
          "internalType": "uint256",
          "name": "",
          "type": "uint256"
        }
      ],
      "stateMutability": "view",
      "type": "function"
    },
    {
      "inputs": [],
      "name": "SEED_ALLOCATION",
      "outputs": [
        {
          "internalType": "uint256",
          "name": "",
          "type": "uint256"
        }
      ],
      "stateMutability": "view",
      "type": "function"
    },
    {
      "inputs": [],
      "name": "TEAM_ALLOCATION",
      "outputs": [
        {
          "internalType": "uint256",
          "name": "",
          "type": "uint256"
        }
      ],
      "stateMutability": "view",
      "type": "function"
    },
    {
      "inputs": [],
      "name": "TOTAL_SUPPLY",
      "outputs": [
        {
          "internalType": "uint256",
          "name": "",
          "type": "uint256"
        }
      ],
      "stateMutability": "view",
      "type": "function"
    },
    {
      "inputs": [
        {
          "internalType": "address",
          "name": "",
          "type": "address"
        },
        {
          "internalType": "address",
          "name": "",
          "type": "address"
        }
      ],
      "name": "allowance",
      "outputs": [
        {
          "internalType": "uint256",
          "name": "",
          "type": "uint256"
        }
      ],
      "stateMutability": "view",
      "type": "function"
    },
    {
      "inputs": [
        {
          "internalType": "address",
          "name": "spender",
          "type": "address"
        },
        {
          "internalType": "uint256",
          "name": "amount",
          "type": "uint256"
        }
      ],
      "name": "approve",
      "outputs": [
        {
          "internalType": "bool",
          "name": "",
          "type": "bool"
        }
      ],
      "stateMutability": "nonpayable",
      "type": "function"
    },
    {
      "inputs": [
        {
          "internalType": "address",
          "name": "",
          "type": "address"
        }
      ],
      "name": "balanceOf",
      "outputs": [
        {
          "internalType": "uint256",
          "name": "",
          "type": "uint256"
        }
      ],
      "stateMutability": "view",
      "type": "function"
    },
    {
      "inputs": [
        {
          "internalType": "address",
          "name": "",
          "type": "address"
        },
        {
          "internalType": "uint256",
          "name": "",
          "type": "uint256"
        }
      ],
      "name": "beneficiarySchedules",
      "outputs": [
        {
          "internalType": "uint256",
          "name": "",
          "type": "uint256"
        }
      ],
      "stateMutability": "view",
      "type": "function"
    },
    {
      "inputs": [
        {
          "internalType": "uint256",
          "name": "amount",
          "type": "uint256"
        }
      ],
      "name": "burn",
      "outputs": [],
      "stateMutability": "nonpayable",
      "type": "function"
    },
    {
      "inputs": [
        {
          "internalType": "address",
          "name": "account",
          "type": "address"
        },
        {
          "internalType": "uint256",
          "name": "amount",
          "type": "uint256"
        }
      ],
      "name": "burnFrom",
      "outputs": [],
      "stateMutability": "nonpayable",
      "type": "function"
    },
    {
      "inputs": [],
      "name": "decimals",
      "outputs": [
        {
          "internalType": "uint8",
          "name": "",
          "type": "uint8"
        }
      ],
      "stateMutability": "view",
      "type": "function"
    },
    {
      "inputs": [
        {
          "internalType": "address",
          "name": "beneficiary",
          "type": "address"
        }
      ],
      "name": "getSchedulesByBeneficiary",
      "outputs": [
        {
          "internalType": "uint256[]",
          "name": "",
          "type": "uint256[]"
        }
      ],
      "stateMutability": "view",
      "type": "function"
    },
    {
      "inputs": [],
      "name": "name",
      "outputs": [
        {
          "internalType": "string",
          "name": "",
          "type": "string"
        }
      ],
      "stateMutability": "view",
      "type": "function"
    },
    {
      "inputs": [],
      "name": "owner",
      "outputs": [
        {
          "internalType": "address",
          "name": "",
          "type": "address"
        }
      ],
      "stateMutability": "view",
      "type": "function"
    },
    {
      "inputs": [],
      "name": "protocolContract",
      "outputs": [
        {
          "internalType": "address",
          "name": "",
          "type": "address"
        }
      ],
      "stateMutability": "view",
      "type": "function"
    },
    {
      "inputs": [
        {
          "internalType": "uint256",
          "name": "scheduleId",
          "type": "uint256"
        }
      ],
      "name": "releasableAmount",
      "outputs": [
        {
          "internalType": "uint256",
          "name": "",
          "type": "uint256"
        }
      ],
      "stateMutability": "view",
      "type": "function"
    },
    {
      "inputs": [
        {
          "internalType": "uint256",
          "name": "scheduleId",
          "type": "uint256"
        }
      ],
      "name": "releaseVesting",
      "outputs": [],
      "stateMutability": "nonpayable",
      "type": "function"
    },
    {
      "inputs": [
        {
          "internalType": "uint256",
          "name": "scheduleId",
          "type": "uint256"
        }
      ],
      "name": "revokeVesting",
      "outputs": [],
      "stateMutability": "nonpayable",
      "type": "function"
    },
    {
      "inputs": [
        {
          "internalType": "address",
          "name": "node",
          "type": "address"
        },
        {
          "internalType": "uint256",
          "name": "amount",
          "type": "uint256"
        }
      ],
      "name": "rewardNode",
      "outputs": [],
      "stateMutability": "nonpayable",
      "type": "function"
    },
    {
      "inputs": [
        {
          "internalType": "address",
          "name": "_protocol",
          "type": "address"
        }
      ],
      "name": "setProtocolContract",
      "outputs": [],
      "stateMutability": "nonpayable",
      "type": "function"
    },
    {
      "inputs": [],
      "name": "symbol",
      "outputs": [
        {
          "internalType": "string",
          "name": "",
          "type": "string"
        }
      ],
      "stateMutability": "view",
      "type": "function"
    },
    {
      "inputs": [],
      "name": "totalSupply",
      "outputs": [
        {
          "internalType": "uint256",
          "name": "",
          "type": "uint256"
        }
      ],
      "stateMutability": "view",
      "type": "function"
    },
    {
      "inputs": [
        {
          "internalType": "address",
          "name": "to",
          "type": "address"
        },
        {
          "internalType": "uint256",
          "name": "amount",
          "type": "uint256"
        }
      ],
      "name": "transfer",
      "outputs": [
        {
          "internalType": "bool",
          "name": "",
          "type": "bool"
        }
      ],
      "stateMutability": "nonpayable",
      "type": "function"
    },
    {
      "inputs": [
        {
          "internalType": "address",
          "name": "from",
          "type": "address"
        },
        {
          "internalType": "address",
          "name": "to",
          "type": "address"
        },
        {
          "internalType": "uint256",
          "name": "amount",
          "type": "uint256"
        }
      ],
      "name": "transferFrom",
      "outputs": [
        {
          "internalType": "bool",
          "name": "",
          "type": "bool"
        }
      ],
      "stateMutability": "nonpayable",
      "type": "function"
    },
    {
      "inputs": [
        {
          "internalType": "address",
          "name": "newOwner",
          "type": "address"
        }
      ],
      "name": "transferOwnership",
      "outputs": [],
      "stateMutability": "nonpayable",
      "type": "function"
    },
    {
      "inputs": [
        {
          "internalType": "uint256",
          "name": "",
          "type": "uint256"
        }
      ],
      "name": "vestingSchedules",
      "outputs": [
        {
          "internalType": "address",
          "name": "beneficiary",
          "type": "address"
        },
        {
          "internalType": "uint256",
          "name": "totalAmount",
          "type": "uint256"
        },
        {
          "internalType": "uint256",
          "name": "released",
          "type": "uint256"
        },
        {
          "internalType": "uint256",
          "name": "startTime",
          "type": "uint256"
        },
        {
          "internalType": "uint256",
          "name": "cliffDuration",
          "type": "uint256"
        },
        {
          "internalType": "uint256",
          "name": "vestingDuration",
          "type": "uint256"
        },
        {
          "internalType": "bool",
          "name": "revocable",
          "type": "bool"
        },
        {
          "internalType": "bool",
          "name": "revoked",
          "type": "bool"
        }
      ],
      "stateMutability": "view",
      "type": "function"
    }
  ],
  "bytecode": "0x60806040523480156200001157600080fd5b5060405162001cdb38038062001cdb833981016040819052620000349162000585565b6001600160a01b038516620000905760405162461bcd60e51b815260206004820152601a60248201527f474d4e443a207465616d2077616c6c657420696e76616c69646100000000000060448201526064015b60405180910390fd5b6001600160a01b038416620000e85760405162461bcd60e51b815260206004820152601d60248201527f474d4e443a20726573657276652077616c6c657420696e76616c696461000000604482015260640162000087565b6001600160a01b038316620001405760405162461bcd60e51b815260206004820152601f60248201527f474d4e443a2065636f73797374656d2077616c6c657420696e76616c69646100604482015260640162000087565b6001600160a01b038216620001985760405162461bcd60e51b815260206004820152601f60248201527f474d4e443a206c69717569646974792077616c6c657420696e76616c69646100604482015260640162000087565b6001600160a01b038116620001f05760405162461bcd60e51b815260206004820152601a60248201527f474d4e443a20736565642077616c6c657420696e76616c696461000000000000604482015260640162000087565b600580546001600160a01b031916339081179091556b033b2e3c9fd0803ce80000006004556200022d906b014adf4b7320334b90000000620002f0565b62000244826a295be96e64066972000000620002f0565b6200025b846a52b7d2dcc80cd2e4000000620002f0565b62000272836a7c13bc4b2c133c56000000620002f0565b62000289306a7c13bc4b2c133c56000000620002f0565b620002ab816a7c13bc4b2c133c5600000062ed4e006302c7ea006001620003b1565b620002c2306a7c13bc4b2c133c56000000620002f0565b620002e5856a7c13bc4b2c133c560000006301e133806305a39a806001620003b1565b50505050506200061d565b6001600160a01b0382166200033d5760405162461bcd60e51b8152602060048201526012602482015271474d4e443a206d696e7420746f207a65726f60701b604482015260640162000087565b6001600160a01b0382166000908152600260205260408120805483929062000367908490620005f5565b90915550506040518181526001600160a01b038316906000907fddf252ad1be2c89b69c2b068fc378daa952ba7f163c4a11628f55a4df523b3ef9060200160405180910390a35050565b6000808054905090506000604051806101000160405280886001600160a01b0316815260200187815260200160008152602001428152602001868152602001858152602001841515815260200160001515815250908060018154018082558091505060019003906000526020600020906007020160009091909190915060008201518160000160006101000a8154816001600160a01b0302191690836001600160a01b031602179055506020820151816001015560408201518160020155606082015181600301556080820151816004015560a0820151816005015560c08201518160060160006101000a81548160ff02191690831515021790555060e08201518160060160016101000a81548160ff021916908315150217905550505060016000876001600160a01b03166001600160a01b03168152602001908152602001600020819080600181540180825580915050600190039060005260206000200160009091909190915055856001600160a01b0316817f0ce07a91b9035cd79ad5e5cf9ce8b7a992aace7bd1743247060a903cdbb022f6876040516200055891815260200190565b60405180910390a3505050505050565b80516001600160a01b03811681146200058057600080fd5b919050565b600080600080600060a086880312156200059e57600080fd5b620005a98662000568565b9450620005b96020870162000568565b9350620005c96040870162000568565b9250620005d96060870162000568565b9150620005e96080870162000568565b90509295509295909350565b808201808211156200061757634e487b7160e01b600052601160045260246000fd5b92915050565b6116ae806200062d6000396000f3fe608060405234801561001057600080fd5b50600436106101cf5760003560e01c806379cc679011610104578063a9059cbb116100a2578063e2265f8411610071578063e2265f841461048e578063f2fde38b146104a1578063f4bd688b146104b4578063fd99cbed1461029057600080fd5b8063a9059cbb1461043d578063d381f21214610290578063dd12820014610450578063dd62ed3e1461046357600080fd5b80639466e9e9116100de5780639466e9e9146103d557806395d89b41146103f55780639d2cc43614610418578063a76a2fcb1461042a57600080fd5b806379cc6790146103845780638da5cb5b14610397578063902d55a5146103c257600080fd5b8063313ce5671161017157806352aa9df31161014b57806352aa9df3146102e25780635927fca2146102f55780636d3cbe211461030857806370a082311461036457600080fd5b8063313ce567146102a257806342966c68146102bc57806346ca4241146102cf57600080fd5b806318160ddd116101ad57806318160ddd1461025457806323b872dd1461026b5780632861c7d11461027e5780632f85dac51461029057600080fd5b806306fdde03146101d4578063095ea7b31461021c5780630d40853e1461023f575b600080fd5b6102066040518060400160405280601381526020017211db1bd8985b135a5b9908141c9bdd1bd8dbdb606a1b81525081565b6040516102139190611423565b60405180910390f35b61022f61022a36600461148e565b6104c7565b6040519015158152602001610213565b61025261024d36600461148e565b610534565b005b61025d60045481565b604051908152602001610213565b61022f6102793660046114b8565b6106fd565b61025d6a295be96e6406697200000081565b61025d6a7c13bc4b2c133c5600000081565b6102aa601281565b60405160ff9091168152602001610213565b6102526102ca3660046114f4565b6107be565b61025d6102dd36600461148e565b6108c6565b6102526102f036600461150d565b6108f7565b61025d6103033660046114f4565b6109c1565b61031b6103163660046114f4565b6109ec565b604080516001600160a01b0390991689526020890197909752958701949094526060860192909252608085015260a0840152151560c0830152151560e082015261010001610213565b61025d61037236600461150d565b60026020526000908152604090205481565b61025261039236600461148e565b610a51565b6005546103aa906001600160a01b031681565b6040516001600160a01b039091168152602001610213565b61025d6b033b2e3c9fd0803ce800000081565b6103e86103e336600461150d565b610c58565b6040516102139190611528565b6102066040518060400160405280600481526020016311d3539160e21b81525081565b61025d6a52b7d2dcc80cd2e400000081565b6006546103aa906001600160a01b031681565b61022f61044b36600461148e565b610cc4565b61025261045e3660046114f4565b610cda565b61025d61047136600461156c565b600360209081526000928352604080842090915290825290205481565b61025d6b014adf4b7320334b9000000081565b6102526104af36600461150d565b610f34565b6102526104c23660046114f4565b610fcd565b3360008181526003602090815260408083206001600160a01b038716808552925280832085905551919290917f8c5be1e5ebec7d5bd14f71427d1e84f3dd0314c0f7b2291e5b200ac8c7c3b925906105229086815260200190565b60405180910390a35060015b92915050565b6006546001600160a01b031633148061055757506005546001600160a01b031633145b6105a35760405162461bcd60e51b8152602060048201526018602482015277474d4e443a206170656e6173206f2070726f746f636f6c6f60401b60448201526064015b60405180910390fd5b30600090815260026020526040902054811115806105db57506005546001600160a01b03166000908152600260205260409020548111155b6106275760405162461bcd60e51b815260206004820152601f60248201527f474d4e443a20706f6f6c206465207265636f6d70656e7361732076617a696f00604482015260640161059a565b6005546001600160a01b031660009081526002602052604081205482111561064f573061065c565b6005546001600160a01b03165b6001600160a01b0381166000908152600260205260408120805492935084929091906106899084906115b5565b90915550506001600160a01b038316600090815260026020526040812080548492906106b69084906115c8565b92505081905550826001600160a01b0316816001600160a01b0316600080516020611659833981519152846040516106f091815260200190565b60405180910390a3505050565b6001600160a01b03831660009081526003602090815260408083203384529091528120548211156107705760405162461bcd60e51b815260206004820152601c60248201527f474d4e443a20616c6c6f77616e636520696e737566696369656e746500000000604482015260640161059a565b6001600160a01b0384166000908152600360209081526040808320338452909152812080548492906107a39084906115b5565b909155506107b490508484846111e5565b5060019392505050565b3360009081526002602052604090205481111561082b5760405162461bcd60e51b815260206004820152602560248201527f474d4e443a2073616c646f20696e737566696369656e7465207061726120717560448201526432b4b6b0b960d91b606482015260840161059a565b336000908152600260205260408120805483929061084a9084906115b5565b92505081905550806004600082825461086391906115b5565b909155505060405181815260009033906000805160206116598339815191529060200160405180910390a360405181815233907ffd38818f5291bf0bb3a2a48aadc06ba8757865d1dabd804585338aab3009dcb69060200160405180910390a250565b600160205281600052604060002081815481106108e257600080fd5b90600052602060002001600091509150505481565b6005546001600160a01b031633146109215760405162461bcd60e51b815260040161059a906115db565b6001600160a01b0381166109775760405162461bcd60e51b815260206004820152601760248201527f474d4e443a20656e64657265636f20696e76616c69646f000000000000000000604482015260640161059a565b600680546001600160a01b0319166001600160a01b0383169081179091556040517f176988b3c585f4c36efd4f6349858eb7341d93883da0c30a2f498e943b7638b890600090a250565b600061052e600083815481106109d9576109d9611609565b906000526020600020906007020161137c565b600081815481106109fc57600080fd5b600091825260209091206007909102018054600182015460028301546003840154600485015460058601546006909601546001600160a01b039095169650929491939092919060ff8082169161010090041688565b6006546001600160a01b0316331480610a7457506005546001600160a01b031633145b610abb5760405162461bcd60e51b8152602060048201526018602482015277474d4e443a206170656e6173206f2070726f746f636f6c6f60401b604482015260640161059a565b6001600160a01b038216600090815260026020526040902054811115610b1e5760405162461bcd60e51b8152602060048201526018602482015277474d4e443a2073616c646f20696e737566696369656e746560401b604482015260640161059a565b6001600160a01b038216600090815260036020908152604080832033845290915290205481111580610b5a57506005546001600160a01b031633145b610b9c5760405162461bcd60e51b8152602060048201526013602482015272474d4e443a2073656d207065726d697373616f60681b604482015260640161059a565b6001600160a01b03821660009081526002602052604081208054839290610bc49084906115b5565b925050819055508060046000828254610bdd91906115b5565b90915550506040518181526000906001600160a01b038416906000805160206116598339815191529060200160405180910390a3816001600160a01b03167ffd38818f5291bf0bb3a2a48aadc06ba8757865d1dabd804585338aab3009dcb682604051610c4c91815260200190565b60405180910390a25050565b6001600160a01b038116600090815260016020908152604091829020805483518184028101840190945280845260609392830182828015610cb857602002820191906000526020600020905b815481526020019060010190808311610ca4575b50505050509050919050565b6000610cd13384846111e5565b50600192915050565b6005546001600160a01b03163314610d045760405162461bcd60e51b815260040161059a906115db565b6000808281548110610d1857610d18611609565b60009182526020909120600790910201600681015490915060ff16610d7f5760405162461bcd60e51b815260206004820152601b60248201527f474d4e443a2076657374696e67206e616f207265766f676176656c0000000000604482015260640161059a565b6006810154610100900460ff1615610dcd5760405162461bcd60e51b8152602060048201526011602482015270474d4e443a206a61207265766f6761646f60781b604482015260640161059a565b6000610dd88261137c565b90508015610e7d5780826002016000828254610df491906115c8565b90915550503060009081526002602052604081208054839290610e189084906115b5565b909155505081546001600160a01b031660009081526002602052604081208054839290610e469084906115c8565b909155505081546040518281526001600160a01b039091169030906000805160206116598339815191529060200160405180910390a35b600082600201548360010154610e9391906115b5565b60068401805461ff00191661010017905530600090815260026020526040812080549293508392909190610ec89084906115b5565b90915550506005546001600160a01b031660009081526002602052604081208054839290610ef79084906115c8565b90915550506005546040518281526001600160a01b039091169030906000805160206116598339815191529060200160405180910390a350505050565b6005546001600160a01b03163314610f5e5760405162461bcd60e51b815260040161059a906115db565b6001600160a01b038116610fab5760405162461bcd60e51b8152602060048201526014602482015273474d4e443a206f776e657220696e76616c69646f60601b604482015260640161059a565b600580546001600160a01b0319166001600160a01b0392909216919091179055565b6000808281548110610fe157610fe1611609565b6000918252602090912060079091020180549091506001600160a01b0316331461104d5760405162461bcd60e51b815260206004820152601a60248201527f474d4e443a206e616f2065206f2062656e65666963696172696f000000000000604482015260640161059a565b6006810154610100900460ff16156110a05760405162461bcd60e51b8152602060048201526016602482015275474d4e443a2076657374696e67207265766f6761646f60501b604482015260640161059a565b60006110ab8261137c565b9050600081116111095760405162461bcd60e51b815260206004820152602360248201527f474d4e443a206e656e68756d20746f6b656e20646973706f6e6976656c2061696044820152626e646160e81b606482015260840161059a565b8082600201600082825461111d91906115c8565b909155505030600090815260026020526040812080548392906111419084906115b5565b909155505081546001600160a01b03166000908152600260205260408120805483929061116f9084906115c8565b909155505081546040518281526001600160a01b039091169030906000805160206116598339815191529060200160405180910390a381546040518281526001600160a01b039091169084907fa6c812047c4dc10f52f9e7943b1b3dfafae864d5e0d4ded081bbbde69dd6ff0d906020016106f0565b6001600160a01b03831661123b5760405162461bcd60e51b815260206004820152601860248201527f474d4e443a207472616e736665722066726f6d207a65726f0000000000000000604482015260640161059a565b6001600160a01b03821661128a5760405162461bcd60e51b8152602060048201526016602482015275474d4e443a207472616e7366657220746f207a65726f60501b604482015260640161059a565b6001600160a01b0383166000908152600260205260409020548111156112ed5760405162461bcd60e51b8152602060048201526018602482015277474d4e443a2073616c646f20696e737566696369656e746560401b604482015260640161059a565b6001600160a01b038316600090815260026020526040812080548392906113159084906115b5565b90915550506001600160a01b038216600090815260026020526040812080548392906113429084906115c8565b92505081905550816001600160a01b0316836001600160a01b0316600080516020611659833981519152836040516106f091815260200190565b6006810154600090610100900460ff161561139957506000919050565b60008260030154426113ab91906115b5565b905082600401548110156113c25750600092915050565b826005015481106113e857826002015483600101546113e191906115b5565b9392505050565b600083600501548285600101546113ff919061161f565b6114099190611636565b905083600201548161141b91906115b5565b949350505050565b60006020808352835180602085015260005b8181101561145157858101830151858201604001528201611435565b506000604082860101526040601f19601f8301168501019250505092915050565b80356001600160a01b038116811461148957600080fd5b919050565b600080604083850312156114a157600080fd5b6114aa83611472565b946020939093013593505050565b6000806000606084860312156114cd57600080fd5b6114d684611472565b92506114e460208501611472565b9150604084013590509250925092565b60006020828403121561150657600080fd5b5035919050565b60006020828403121561151f57600080fd5b6113e182611472565b6020808252825182820181905260009190848201906040850190845b8181101561156057835183529284019291840191600101611544565b50909695505050505050565b6000806040838503121561157f57600080fd5b61158883611472565b915061159660208401611472565b90509250929050565b634e487b7160e01b600052601160045260246000fd5b8181038181111561052e5761052e61159f565b8082018082111561052e5761052e61159f565b60208082526014908201527323a6a7221d1030b832b730b990379037bbb732b960611b604082015260600190565b634e487b7160e01b600052603260045260246000fd5b808202811582820484141761052e5761052e61159f565b60008261165357634e487b7160e01b600052601260045260246000fd5b50049056feddf252ad1be2c89b69c2b068fc378daa952ba7f163c4a11628f55a4df523b3efa26469706673582212208fb9d4fac3fb161ed6af3c46ebf9d5d91ab1087b26a88929ac71c7d2e2e9cfa364736f6c63430008180033",
  "linkReferences": {},
  "deployedLinkReferences": {}
}