{
  "_format": "hh-sol-artifact-1",
  "contractName": "GlobalMindProtocol",
  "sourceName": "contracts/GlobalMindProtocol.sol",
  "abi": [
    {
      "inputs": [
        {
          "internalType": "address",
          "name": "_treasury",
          "type": "address"
        }
      ],
      "stateMutability": "nonpayable",
      "type": "constructor"
    },
    {
      "anonymous": false,
      "inputs": [
        {
          "indexed": true,
          "internalType": "uint256",
          "name": "batchId",
          "type": "uint256"
        },
        {
          "indexed": true,
          "internalType": "uint256",
          "name": "taskIndex",
          "type": "uint256"
        },
        {
          "indexed": true,
          "internalType": "address",
          "name": "node",
          "type": "address"
        },
        {
          "indexed": false,
          "internalType": "string",
          "name": "answer",
          "type": "string"
        }
      ],
      "name": "AnswerSubmitted",
      "type": "event"
    },
    {
      "anonymous": false,
      "inputs": [
        {
          "indexed": true,
          "internalType": "uint256",
          "name": "batchId",
          "type": "uint256"
        }
      ],
      "name": "BatchCancelled",
      "type": "event"
    },
    {
      "anonymous": false,
      "inputs": [
        {
          "indexed": true,
          "internalType": "uint256",
          "name": "batchId",
          "type": "uint256"
        },
        {
          "indexed": true,
          "internalType": "address",
          "name": "creator",
          "type": "address"
        },
        {
          "indexed": false,
          "internalType": "uint256",
          "name": "reward",
          "type": "uint256"
        },
        {
          "indexed": false,
          "internalType": "uint256",
          "name": "taskCount",
          "type": "uint256"
        },
        {
          "indexed": false,
          "internalType": "uint256",
          "name": "deadline",
          "type": "uint256"
        }
      ],
      "name": "BatchCreated",
      "type": "event"
    },
    {
      "anonymous": false,
      "inputs": [
        {
          "indexed": true,
          "internalType": "uint256",
          "name": "batchId",
          "type": "uint256"
        },
        {
          "indexed": false,
          "internalType": "uint256",
          "name": "rewardPerNode",
          "type": "uint256"
        },
        {
          "indexed": false,
          "internalType": "uint256",
          "name": "burned",
          "type": "uint256"
        },
        {
          "indexed": false,
          "internalType": "uint256",
          "name": "toTreasury",
          "type": "uint256"
        },
        {
          "indexed": false,
          "internalType": "uint256",
          "name": "validatorCount",
          "type": "uint256"
        }
      ],
      "name": "BatchFinalized",
      "type": "event"
    },
    {
      "inputs": [],
      "name": "BURN_SHARE",
      "outputs": [
        {
          "internalType": "uint256",
          "name": "",
          "type": "uint256"
        }
      ],
      "stateMutability": "view",
      "type": "function"
    },
    {
      "inputs": [],
      "name": "MIN_VALIDATORS",
      "outputs": [
        {
          "internalType": "uint256",
          "name": "",
          "type": "uint256"
        }
      ],
      "stateMutability": "view",
      "type": "function"
    },
    {
      "inputs": [],
      "name": "REWARD_SHARE",
      "outputs": [
        {
          "internalType": "uint256",
          "name": "",
          "type": "uint256"
        }
      ],
      "stateMutability": "view",
      "type": "function"
    },
    {
      "inputs": [],
      "name": "TREASURY_SHARE",
      "outputs": [
        {
          "internalType": "uint256",
          "name": "",
          "type": "uint256"
        }
      ],
      "stateMutability": "view",
      "type": "function"
    },
    {
      "inputs": [
        {
          "internalType": "uint256",
          "name": "",
          "type": "uint256"
        },
        {
          "internalType": "uint256",
          "name": "",
          "type": "uint256"
        },
        {
          "internalType": "uint256",
          "name": "",
          "type": "uint256"
        }
      ],
      "name": "answers",
      "outputs": [
        {
          "internalType": "address",
          "name": "node",
          "type": "address"
        },
        {
          "internalType": "string",
          "name": "answer",
          "type": "string"
        },
        {
          "internalType": "uint256",
          "name": "submittedAt",
          "type": "uint256"
        }
      ],
      "stateMutability": "view",
      "type": "function"
    },
    {
      "inputs": [],
      "name": "batchCount",
      "outputs": [
        {
          "internalType": "uint256",
          "name": "",
          "type": "uint256"
        }
      ],
      "stateMutability": "view",
      "type": "function"
    },
    {
      "inputs": [
        {
          "internalType": "uint256",
          "name": "",
          "type": "uint256"
        }
      ],
      "name": "batches",
      "outputs": [
        {
          "internalType": "address",
          "name": "creator",
          "type": "address"
        },
        {
          "internalType": "uint256",
          "name": "reward",
          "type": "uint256"
        },
        {
          "internalType": "uint256",
          "name": "createdAt",
          "type": "uint256"
        },
        {
          "internalType": "uint256",
          "name": "deadline",
          "type": "uint256"
        },
        {
          "internalType": "enum GlobalMindProtocol.BatchStatus",
          "name": "status",
          "type": "uint8"
        },
        {
          "internalType": "uint256",
          "name": "taskCount",
          "type": "uint256"
        }
      ],
      "stateMutability": "view",
      "type": "function"
    },
    {
      "inputs": [
        {
          "internalType": "uint256",
          "name": "batchId",
          "type": "uint256"
        }
      ],
      "name": "cancelBatch",
      "outputs": [],
      "stateMutability": "nonpayable",
      "type": "function"
    },
    {
      "inputs": [
        {
          "internalType": "string[]",
          "name": "taskIds",
          "type": "string[]"
        },
        {
          "internalType": "string[]",
          "name": "contents",
          "type": "string[]"
        },
        {
          "internalType": "enum GlobalMindProtocol.TaskType[]",
          "name": "taskTypes",
          "type": "uint8[]"
        },
        {
          "internalType": "uint256",
          "name": "deadlineIn",
          "type": "uint256"
        }
      ],
      "name": "createBatch",
      "outputs": [
        {
          "internalType": "uint256",
          "name": "batchId",
          "type": "uint256"
        }
      ],
      "stateMutability": "payable",
      "type": "function"
    },
    {
      "inputs": [
        {
          "internalType": "uint256",
          "name": "batchId",
          "type": "uint256"
        }
      ],
      "name": "finalizeBatch",
      "outputs": [],
      "stateMutability": "nonpayable",
      "type": "function"
    },
    {
      "inputs": [
        {
          "internalType": "uint256",
          "name": "batchId",
          "type": "uint256"
        },
        {
          "internalType": "uint256",
          "name": "taskIndex",
          "type": "uint256"
        }
      ],
      "name": "getAnswers",
      "outputs": [
        {
          "components": [
            {
              "internalType": "address",
              "name": "node",
              "type": "address"
            },
            {
              "internalType": "string",
              "name": "answer",
              "type": "string"
            },
            {
              "internalType": "uint256",
              "name": "submittedAt",
              "type": "uint256"
            }
          ],
          "internalType": "struct GlobalMindProtocol.Answer[]",
          "name": "",
          "type": "tuple[]"
        }
      ],
      "stateMutability": "view",
      "type": "function"
    },
    {
      "inputs": [
        {
          "internalType": "uint256",
          "name": "batchId",
          "type": "uint256"
        }
      ],
      "name": "getBatchInfo",
      "outputs": [
        {
          "internalType": "address",
          "name": "creator",
          "type": "address"
        },
        {
          "internalType": "uint256",
          "name": "reward",
          "type": "uint256"
        },
        {
          "internalType": "uint256",
          "name": "taskCount",
          "type": "uint256"
        },
        {
          "internalType": "uint256",
          "name": "deadline",
          "type": "uint256"
        },
        {
          "internalType": "enum GlobalMindProtocol.BatchStatus",
          "name": "status",
          "type": "uint8"
        }
      ],
      "stateMutability": "view",
      "type": "function"
    },
    {
      "inputs": [
        {
          "internalType": "address",
          "name": "node",
          "type": "address"
        }
      ],
      "name": "getNodeProfile",
      "outputs": [
        {
          "internalType": "uint256",
          "name": "score",
          "type": "uint256"
        },
        {
          "internalType": "uint256",
          "name": "totalTasks",
          "type": "uint256"
        }
      ],
      "stateMutability": "view",
      "type": "function"
    },
    {
      "inputs": [
        {
          "internalType": "uint256",
          "name": "batchId",
          "type": "uint256"
        },
        {
          "internalType": "uint256",
          "name": "taskIndex",
          "type": "uint256"
        }
      ],
      "name": "getTask",
      "outputs": [
        {
          "internalType": "string",
          "name": "taskId",
          "type": "string"
        },
        {
          "internalType": "string",
          "name": "content",
          "type": "string"
        },
        {
          "internalType": "enum GlobalMindProtocol.TaskType",
          "name": "taskType",
          "type": "uint8"
        }
      ],
      "stateMutability": "view",
      "type": "function"
    },
    {
      "inputs": [
        {
          "internalType": "uint256",
          "name": "",
          "type": "uint256"
        },
        {
          "internalType": "uint256",
          "name": "",
          "type": "uint256"
        },
        {
          "internalType": "address",
          "name": "",
          "type": "address"
        }
      ],
      "name": "hasAnswered",
      "outputs": [
        {
          "internalType": "bool",
          "name": "",
          "type": "bool"
        }
      ],
      "stateMutability": "view",
      "type": "function"
    },
    {
      "inputs": [
        {
          "internalType": "address",
          "name": "",
          "type": "address"
        }
      ],
      "name": "nodeScore",
      "outputs": [
        {
          "internalType": "uint256",
          "name": "",
          "type": "uint256"
        }
      ],
      "stateMutability": "view",
      "type": "function"
    },
    {
      "inputs": [
        {
          "internalType": "address",
          "name": "",
          "type": "address"
        }
      ],
      "name": "nodeTaskCount",
      "outputs": [
        {
          "internalType": "uint256",
          "name": "",
          "type": "uint256"
        }
      ],
      "stateMutability": "view",
      "type": "function"
    },
    {
      "inputs": [],
      "name": "owner",
      "outputs": [
        {
          "internalType": "address",
          "name": "",
          "type": "address"
        }
      ],
      "stateMutability": "view",
      "type": "function"
    },
    {
      "inputs": [
        {
          "internalType": "address",
          "name": "_treasury",
          "type": "address"
        }
      ],
      "name": "setTreasury",
      "outputs": [],
      "stateMutability": "nonpayable",
      "type": "function"
    },
    {
      "inputs": [
        {
          "internalType": "uint256",
          "name": "batchId",
          "type": "uint256"
        },
        {
          "internalType": "uint256",
          "name": "taskIndex",
          "type": "uint256"
        },
        {
          "internalType": "string",
          "name": "answer",
          "type": "string"
        }
      ],
      "name": "submitAnswer",
      "outputs": [],
      "stateMutability": "nonpayable",
      "type": "function"
    },
    {
      "inputs": [
        {
          "internalType": "address",
          "name": "newOwner",
          "type": "address"
        }
      ],
      "name": "transferOwnership",
      "outputs": [],
      "stateMutability": "nonpayable",
      "type": "function"
    },
    {
      "inputs": [],
      "name": "treasury",
      "outputs": [
        {
          "internalType": "address",
          "name": "",
          "type": "address"
        }
      ],
      "stateMutability": "view",
      "type": "function"
    }
  ],
  "bytecode": "0x60806040523480156200001157600080fd5b50604051620029ca380380620029ca833981016040819052620000349162000068565b60008054336001600160a01b031991821617909155600180549091166001600160a01b03929092169190911790556200009a565b6000602082840312156200007b57600080fd5b81516001600160a01b03811681146200009357600080fd5b9392505050565b61292080620000aa6000396000f3fe6080604052600436106101355760003560e01c80638da5cb5b116100ab578063c8dfa5fe1161006f578063c8dfa5fe146103fd578063df6a6f8c14610455578063e33491a714610482578063f0f44260146104a2578063f2fde38b146104c2578063fc890110146104e257600080fd5b80638da5cb5b146102fc5780638f0fff3d1461031c57806393b998fb14610349578063b32c4d8d1461035e578063c598bd30146103d057600080fd5b806349222b50116100fd57806349222b50146101eb57806352dd4eb11461021a578063565e5db3146102495780635ed1f9631461025e57806361d027b314610273578063631cfc26146102ab57600080fd5b806306f130561461013a5780630a24cf5f146101635780631a0058f5146101855780631bc7980c146101b657806332696174146101d6575b600080fd5b34801561014657600080fd5b5061015060025481565b6040519081526020015b60405180910390f35b34801561016f57600080fd5b5061018361017e3660046121a4565b6104f5565b005b34801561019157600080fd5b506101a56101a03660046121a4565b610712565b60405161015a9594939291906121e7565b3480156101c257600080fd5b506101836101d1366004612223565b610780565b3480156101e257600080fd5b50610150600a81565b3480156101f757600080fd5b5061020b6102063660046122a3565b610b02565b60405161015a93929190612315565b34801561022657600080fd5b5061023a610235366004612349565b610be7565b60405161015a9392919061236b565b34801561025557600080fd5b50610150604681565b34801561026a57600080fd5b50610150600181565b34801561027f57600080fd5b50600154610293906001600160a01b031681565b6040516001600160a01b03909116815260200161015a565b3480156102b757600080fd5b506102ec6102c63660046123cd565b600560209081526000938452604080852082529284528284209052825290205460ff1681565b604051901515815260200161015a565b34801561030857600080fd5b50600054610293906001600160a01b031681565b34801561032857600080fd5b5061033c610337366004612349565b610d82565b60405161015a9190612402565b34801561035557600080fd5b50610150601481565b34801561036a57600080fd5b506103be6103793660046121a4565b60036020819052600091825260409091208054600182015460028301549383015460048401546006909401546001600160a01b039093169491939192909160ff169086565b60405161015a96959493929190612482565b3480156103dc57600080fd5b506101506103eb3660046124c5565b60076020526000908152604090205481565b34801561040957600080fd5b506104406104183660046124c5565b6001600160a01b03166000908152600660209081526040808320546007909252909120549091565b6040805192835260208301919091520161015a565b34801561046157600080fd5b506101506104703660046124c5565b60066020526000908152604090205481565b34801561048e57600080fd5b5061018361049d3660046121a4565b610ec9565b3480156104ae57600080fd5b506101836104bd3660046124c5565b61139b565b3480156104ce57600080fd5b506101836104dd3660046124c5565b61146d565b6101506104f0366004612533565b61153f565b8060025481106105205760405162461bcd60e51b8152600401610517906125d6565b60405180910390fd5b600082815260036020526040812090600482015460ff166002811115610548576105486121bd565b146105655760405162461bcd60e51b81526004016105179061260d565b80546001600160a01b031633146105d15760405162461bcd60e51b815260206004820152602a60248201527f476c6f62616c4d696e643a206170656e6173206f2063726961646f7220706f64604482015269329031b0b731b2b630b960b11b6064820152608401610517565b6105df838260060154611914565b1561062c5760405162461bcd60e51b815260206004820152601b60248201527f476c6f62616c4d696e643a206a6120686120726573706f7374617300000000006044820152606401610517565b60048101805460ff19166002179055805460018201546040516000926001600160a01b031691908381818185875af1925050503d806000811461068b576040519150601f19603f3d011682016040523d82523d6000602084013e610690565b606091505b50509050806106e15760405162461bcd60e51b815260206004820152601e60248201527f476c6f62616c4d696e643a2066616c6861206e6f207265656d626f6c736f00006044820152606401610517565b60405184907f1ced0d1c8e8b8f4a42eabfd2c95761ded75ea1e0925f77edfb139bd09b8c3f5790600090a250505050565b600080600080600085600254811061073c5760405162461bcd60e51b8152600401610517906125d6565b50505060009384525050600360208190526040909220805460018201546006830154948301546004909301546001600160a01b03909216959094935060ff90911690565b8360025481106107a25760405162461bcd60e51b8152600401610517906125d6565b600085815260036020526040812090600482015460ff1660028111156107ca576107ca6121bd565b146107e75760405162461bcd60e51b81526004016105179061260d565b806003015442111561083b5760405162461bcd60e51b815260206004820152601b60248201527f476c6f62616c4d696e643a207072617a6f20656e6365727261646f00000000006044820152606401610517565b8060060154851061088e5760405162461bcd60e51b815260206004820152601d60248201527f476c6f62616c4d696e643a20746172656661206e616f206578697374650000006044820152606401610517565b6000868152600560209081526040808320888452825280832033845290915290205460ff16156109005760405162461bcd60e51b815260206004820152601860248201527f476c6f62616c4d696e643a206a6120726573706f6e64657500000000000000006044820152606401610517565b80546001600160a01b031633036109685760405162461bcd60e51b815260206004820152602660248201527f476c6f62616c4d696e643a2063726961646f72206e616f20706f6465207265736044820152653837b73232b960d11b6064820152608401610517565b826109b55760405162461bcd60e51b815260206004820152601a60248201527f476c6f62616c4d696e643a20726573706f7374612076617a69610000000000006044820152606401610517565b600086815260046020908152604080832088845282529182902082516060810184523381528351601f8801849004840281018401909452868452909290918281019190889088908190840183828082843760009201829052509385525050426020938401525083546001808201865594825290829020835160039092020180546001600160a01b0319166001600160a01b03909216919091178155908201519192909190820190610a6690826126ef565b5060409182015160029091015560008781526005602090815282822088835281528282203383528152828220805460ff1916600117905560079052908120805491610ab0836127c5565b9190505550336001600160a01b031685877f1b72a809869907cac4c4e55b8bf6920ff492d2ff53307bb77ba492366b61387c8787604051610af29291906127de565b60405180910390a4505050505050565b60046020528260005260406000206020528160005260406000208181548110610b2a57600080fd5b6000918252602090912060039091020180546001820180546001600160a01b039092169550919350909150610b5e90612664565b80601f0160208091040260200160405190810160405280929190818152602001828054610b8a90612664565b8015610bd75780601f10610bac57610100808354040283529160200191610bd7565b820191906000526020600020905b815481529060010190602001808311610bba57829003601f168201915b5050505050908060020154905083565b6060806000846002548110610c0e5760405162461bcd60e51b8152600401610517906125d6565b6000868152600360205260408120600501805487908110610c3157610c3161280d565b9060005260206000209060030201905080600001816001018260020160009054906101000a900460ff16828054610c6790612664565b80601f0160208091040260200160405190810160405280929190818152602001828054610c9390612664565b8015610ce05780601f10610cb557610100808354040283529160200191610ce0565b820191906000526020600020905b815481529060010190602001808311610cc357829003601f168201915b50505050509250818054610cf390612664565b80601f0160208091040260200160405190810160405280929190818152602001828054610d1f90612664565b8015610d6c5780601f10610d4157610100808354040283529160200191610d6c565b820191906000526020600020905b815481529060010190602001808311610d4f57829003601f168201915b5050505050915094509450945050509250925092565b6060826002548110610da65760405162461bcd60e51b8152600401610517906125d6565b6000848152600460209081526040808320868452825280832080548251818502810185019093528083529193909284015b82821015610ebb57600084815260209081902060408051606081019091526003850290910180546001600160a01b031682526001810180549293919291840191610e2090612664565b80601f0160208091040260200160405190810160405280929190818152602001828054610e4c90612664565b8015610e995780601f10610e6e57610100808354040283529160200191610e99565b820191906000526020600020905b815481529060010190602001808311610e7c57829003601f168201915b5050505050815260200160028201548152505081526020019060010190610dd7565b5050505091505b5092915050565b806002548110610eeb5760405162461bcd60e51b8152600401610517906125d6565b600082815260036020526040812090600482015460ff166002811115610f1357610f136121bd565b14610f305760405162461bcd60e51b81526004016105179061260d565b8060030154421180610f4b5750610f4b83826006015461194e565b610fb15760405162461bcd60e51b815260206004820152603160248201527f476c6f62616c4d696e643a20616775617264616e646f20726573706f73746173604482015270206d696e696d6173206f75207072617a6f60781b6064820152608401610517565b60048101805460ff191660011790556006810154600090610fd390859061199a565b8051909150806110345760405162461bcd60e51b815260206004820152602660248201527f476c6f62616c4d696e643a206e656e68756d2076656e6365646f7220656e636f6044820152656e747261646f60d01b6064820152608401610517565b600183015460006064611048601484612823565b611052919061283a565b905060006064611063600a85612823565b61106d919061283a565b905060008161107c848661285c565b611086919061285c565b90506000611094868361283a565b9050831561112857604051600090819086908281818185825af1925050503d80600081146110de576040519150601f19603f3d011682016040523d82523d6000602084013e6110e3565b606091505b5050905080806110f1575060015b6111265760405162461bcd60e51b815260040161051790602080825260049082015263313ab93760e11b604082015260600190565b505b82156111e5576001546040516000916001600160a01b03169085908381818185875af1925050503d806000811461117b576040519150601f19603f3d011682016040523d82523d6000602084013e611180565b606091505b50509050806111e35760405162461bcd60e51b815260206004820152602960248201527f476c6f62616c4d696e643a2066616c686120616f20656e76696172207061726160448201526820747265617375727960b81b6064820152608401610517565b505b60005b868110156113445760006001600160a01b031688828151811061120d5761120d61280d565b60200260200101516001600160a01b0316031561133c57600a600660008a848151811061123c5761123c61280d565b60200260200101516001600160a01b03166001600160a01b031681526020019081526020016000206000828254611273919061286f565b9091555050811561133c5760008882815181106112925761129261280d565b60200260200101516001600160a01b03168360405160006040518083038185875af1925050503d80600081146112e4576040519150601f19603f3d011682016040523d82523d6000602084013e6112e9565b606091505b505090508061133a5760405162461bcd60e51b815260206004820152601f60248201527f476c6f62616c4d696e643a2066616c686120616f207061676172206e6f6465006044820152606401610517565b505b6001016111e8565b506040805182815260208101869052908101849052606081018790528a907fa8e81f5051809330bf5d548ab605b0702cfb5353994def75bf7003e9f39ed11e9060800160405180910390a250505050505050505050565b6000546001600160a01b031633146113f55760405162461bcd60e51b815260206004820152601a60248201527f476c6f62616c4d696e643a206170656e6173206f206f776e65720000000000006044820152606401610517565b6001600160a01b03811661144b5760405162461bcd60e51b815260206004820152601d60248201527f476c6f62616c4d696e643a20747265617375727920696e76616c69646f0000006044820152606401610517565b600180546001600160a01b0319166001600160a01b0392909216919091179055565b6000546001600160a01b031633146114c75760405162461bcd60e51b815260206004820152601a60248201527f476c6f62616c4d696e643a206170656e6173206f206f776e65720000000000006044820152606401610517565b6001600160a01b03811661151d5760405162461bcd60e51b815260206004820152601a60248201527f476c6f62616c4d696e643a206f776e657220696e76616c69646f0000000000006044820152606401610517565b600080546001600160a01b0319166001600160a01b0392909216919091179055565b60008661158e5760405162461bcd60e51b815260206004820152601760248201527f476c6f62616c4d696e643a2073656d20746172656661730000000000000000006044820152606401610517565b8685146115dd5760405162461bcd60e51b815260206004820152601e60248201527f476c6f62616c4d696e643a2061727261797320646976657267656e74657300006044820152606401610517565b86831461162c5760405162461bcd60e51b815260206004820152601e60248201527f476c6f62616c4d696e643a2061727261797320646976657267656e74657300006044820152606401610517565b600034116116865760405162461bcd60e51b815260206004820152602160248201527f476c6f62616c4d696e643a207265636f6d70656e7361206e65636573736172696044820152606160f81b6064820152608401610517565b610e108210156116d85760405162461bcd60e51b815260206004820152601f60248201527f476c6f62616c4d696e643a207072617a6f206d696e696d6f203120686f7261006044820152606401610517565b600280549060006116e8836127c5565b90915550600081815260036020526040902080546001600160a01b0319163317815534600182015542600282018190559192509061172790849061286f565b600382015560048101805460ff191690556006810188905560005b888110156118be578160050160405180606001604052808c8c8581811061176b5761176b61280d565b905060200281019061177d9190612882565b8080601f0160208091040260200160405190810160405280939291908181526020018383808284376000920191909152505050908252506020018a8a858181106117c9576117c961280d565b90506020028101906117db9190612882565b8080601f0160208091040260200160405190810160405280939291908181526020018383808284376000920191909152505050908252506020018888858181106118275761182761280d565b905060200201602081019061183c91906128c9565b600381111561184d5761184d6121bd565b9052815460018101835560009283526020909220815191926003020190819061187690826126ef565b506020820151600182019061188b90826126ef565b50604082015160028201805460ff191660018360038111156118af576118af6121bd565b02179055505050600101611742565b50600381015460408051348152602081018b90528082019290925251339184917f9a232dcb3d9dbf48e9abd6eacbc9cdd189a28826c49f9f91dbb116d0befd2b5c9181900360600190a350979650505050505050565b6000805b82811015610ec2576000848152600460209081526040808320848452909152902054611944908361286f565b9150600101611918565b6000805b8281101561198e57600084815260046020908152604080832084845290915290205460011115611986576000915050611994565b600101611952565b50600190505b92915050565b606060006119a88484611cfc565b805190915060008190036119ce5750506040805160008152602081019091529050611994565b60008167ffffffffffffffff8111156119e9576119e961264e565b604051908082528060200260200182016040528015611a12578160200160208202803683370190505b50905060005b85811015611bd85760008781526004602090815260408083208484529091529020805460011115611a495750611bd0565b6000611a5482611f2f565b905060005b8254811015611bcc57611b28838281548110611a7757611a7761280d565b90600052602060002090600302016001018054611a9390612664565b80601f0160208091040260200160405190810160405280929190818152602001828054611abf90612664565b8015611b0c5780601f10611ae157610100808354040283529160200191611b0c565b820191906000526020600020905b815481529060010190602001808311611aef57829003601f168201915b5050505050838051602091820120825192909101919091201490565b15611bc45760005b86811015611bc257838281548110611b4a57611b4a61280d565b600091825260209091206003909102015488516001600160a01b0390911690899083908110611b7b57611b7b61280d565b60200260200101516001600160a01b031603611bba576001868281518110611ba557611ba561280d565b91151560209283029190910190910152611bc2565b600101611b30565b505b600101611a59565b5050505b600101611a18565b506000805b83811015611c1a57828181518110611bf757611bf761280d565b602002602001015115611c125781611c0e816127c5565b9250505b600101611bdd565b5060008167ffffffffffffffff811115611c3657611c3661264e565b604051908082528060200260200182016040528015611c5f578160200160208202803683370190505b5090506000805b85811015611cee57848181518110611c8057611c8061280d565b602002602001015115611ce657868181518110611c9f57611c9f61280d565b6020026020010151838380611cb3906127c5565b945081518110611cc557611cc561280d565b60200260200101906001600160a01b031690816001600160a01b0316815250505b600101611c66565b509098975050505050505050565b60606000805b83811015611d38576000858152600460209081526040808320848452909152902054611d2e908361286f565b9150600101611d02565b5060008167ffffffffffffffff811115611d5457611d5461264e565b604051908082528060200260200182016040528015611d7d578160200160208202803683370190505b5090506000805b85811015611e855760008781526004602090815260408083208484529091528120905b8154811015611e7b576000828281548110611dc457611dc461280d565b600091825260208220600390910201546001600160a01b03169150805b86811015611e2c57826001600160a01b0316888281518110611e0557611e0561280d565b60200260200101516001600160a01b031603611e245760019150611e2c565b600101611de1565b5080611e7157818787611e3e816127c5565b985081518110611e5057611e5061280d565b60200260200101906001600160a01b031690816001600160a01b0316815250505b5050600101611da7565b5050600101611d84565b5060008167ffffffffffffffff811115611ea157611ea161264e565b604051908082528060200260200182016040528015611eca578160200160208202803683370190505b50905060005b82811015611f2457838181518110611eea57611eea61280d565b6020026020010151828281518110611f0457611f0461280d565b6001600160a01b0390921660209283029190910190910152600101611ed0565b509695505050505050565b80546060906000805b8281101561219c576000805b848110156120d8576120bd878481548110611f6157611f6161280d565b90600052602060002090600302016001018054611f7d90612664565b80601f0160208091040260200160405190810160405280929190818152602001828054611fa990612664565b8015611ff65780601f10611fcb57610100808354040283529160200191611ff6565b820191906000526020600020905b815481529060010190602001808311611fd957829003601f168201915b505050505088838154811061200d5761200d61280d565b9060005260206000209060030201600101805461202990612664565b80601f016020809104026020016040519081016040528092919081815260200182805461205590612664565b80156120a25780601f10612077576101008083540402835291602001916120a2565b820191906000526020600020905b81548152906001019060200180831161208557829003601f168201915b50505050508051602091820120825192909101919091201490565b156120d057816120cc816127c5565b9250505b600101611f44565b5082811115612193578092508582815481106120f6576120f661280d565b9060005260206000209060030201600101805461211290612664565b80601f016020809104026020016040519081016040528092919081815260200182805461213e90612664565b801561218b5780601f106121605761010080835404028352916020019161218b565b820191906000526020600020905b81548152906001019060200180831161216e57829003601f168201915b505050505094505b50600101611f38565b505050919050565b6000602082840312156121b657600080fd5b5035919050565b634e487b7160e01b600052602160045260246000fd5b600381106121e3576121e36121bd565b9052565b6001600160a01b038616815260208101859052604081018490526060810183905260a0810161221960808301846121d3565b9695505050505050565b6000806000806060858703121561223957600080fd5b8435935060208501359250604085013567ffffffffffffffff8082111561225f57600080fd5b818701915087601f83011261227357600080fd5b81358181111561228257600080fd5b88602082850101111561229457600080fd5b95989497505060200194505050565b6000806000606084860312156122b857600080fd5b505081359360208301359350604090920135919050565b6000815180845260005b818110156122f5576020818501810151868301820152016122d9565b506000602082860101526020601f19601f83011685010191505092915050565b6001600160a01b0384168152606060208201819052600090612339908301856122cf565b9050826040830152949350505050565b6000806040838503121561235c57600080fd5b50508035926020909101359150565b60608152600061237e60608301866122cf565b828103602084015261239081866122cf565b915050600483106123a3576123a36121bd565b826040830152949350505050565b80356001600160a01b03811681146123c857600080fd5b919050565b6000806000606084860312156123e257600080fd5b83359250602084013591506123f9604085016123b1565b90509250925092565b600060208083018184528085518083526040925060408601915060408160051b87010184880160005b83811015611cee57888303603f19018552815180516001600160a01b0316845287810151606089860181905290612464828701826122cf565b9289015195890195909552509487019492509086019060010161242b565b6001600160a01b038716815260208101869052604081018590526060810184905260c081016124b460808301856121d3565b8260a0830152979650505050505050565b6000602082840312156124d757600080fd5b6124e0826123b1565b9392505050565b60008083601f8401126124f957600080fd5b50813567ffffffffffffffff81111561251157600080fd5b6020830191508360208260051b850101111561252c57600080fd5b9250929050565b60008060008060008060006080888a03121561254e57600080fd5b873567ffffffffffffffff8082111561256657600080fd5b6125728b838c016124e7565b909950975060208a013591508082111561258b57600080fd5b6125978b838c016124e7565b909750955060408a01359150808211156125b057600080fd5b506125bd8a828b016124e7565b989b979a50959894979596606090950135949350505050565b6020808252601c908201527f476c6f62616c4d696e643a206261746368206e616f2065786973746500000000604082015260600190565b60208082526021908201527f476c6f62616c4d696e643a206261746368206e616f20657374612061626572746040820152606f60f81b606082015260800190565b634e487b7160e01b600052604160045260246000fd5b600181811c9082168061267857607f821691505b60208210810361269857634e487b7160e01b600052602260045260246000fd5b50919050565b601f8211156126ea576000816000526020600020601f850160051c810160208610156126c75750805b601f850160051c820191505b818110156126e6578281556001016126d3565b5050505b505050565b815167ffffffffffffffff8111156127095761270961264e565b61271d816127178454612664565b8461269e565b602080601f831160018114612752576000841561273a5750858301515b600019600386901b1c1916600185901b1785556126e6565b600085815260208120601f198616915b8281101561278157888601518255948401946001909101908401612762565b508582101561279f5787850151600019600388901b60f8161c191681555b5050505050600190811b01905550565b634e487b7160e01b600052601160045260246000fd5b6000600182016127d7576127d76127af565b5060010190565b60208152816020820152818360408301376000818301604090810191909152601f909201601f19160101919050565b634e487b7160e01b600052603260045260246000fd5b8082028115828204841417611994576119946127af565b60008261285757634e487b7160e01b600052601260045260246000fd5b500490565b81810381811115611994576119946127af565b80820180821115611994576119946127af565b6000808335601e1984360301811261289957600080fd5b83018035915067ffffffffffffffff8211156128b457600080fd5b60200191503681900382131561252c57600080fd5b6000602082840312156128db57600080fd5b8135600481106124e057600080fdfea2646970667358221220d39a6b1a1f3aed44c92a8089b490a2332b4a158ba83aa5bd7c6d73d7639cebec64736f6c63430008180033",
  "linkReferences": {},
  "deployedLinkReferences": {}
}